:020000040800F2
:10000000D00B0020450100083D190008E11200084E
:10001000451700088D04000829340008000000007E
:10002000000000000000000000000000851F000824
:100030009506000800000000311B0008A9210008F7
:100040005F0100085F0100085F0100085F01000810
:100050005F0100085F010008490700082D0800083B
:100060005F0100085F0100085F0100085F010008F0
:100070005F0100085F0100085F0100085F010008E0
:100080005F0100085F0100085F0100085F010008D0
:100090005F0100085F0100085F01000871080008A7
:1000A0005F010008A92500085F0100084D24000831
:1000B000D925000855260008712600085F010008B0
:1000C0005F0100085F0100085F0100085F01000890
:1000D0005F010008652E0008E52E0008492F000882
:1000E0008D0700085F0100085F0100085F0100083C
:1000F0005F0100085F0100085F0100085F01000860
:100100005F0100085F0100085F0100085F0100084F
:10011000E52D00085F0100085F0100085F0100088D
:100120005F0100085F0100085F0100085F0100082F
:10013000DFF80CD000F0D8F8004800473D40000838
:10014000D00B00200648804706480047FEE7FEE740
:10015000FEE7FEE7FEE7FEE7FEE7FEE7FEE7FEE777
:10016000AD2100083101000880EA010210B502F05B
:100170000043400022D04A001FD0010E01EB126163
:10018000C0F35600C2F3560240F4000042F40002ED
:10019000A0FB022000047F39140400D0401C50EA68
:1001A000124001D44000491EC2B20C0604EBD0102C
:1001B000401C4008802A02D003E0002010BD20F03F
:1001C0000100002900DA0020184310BD30B480EA95
:1001D000010202F0004530F0004221F0004013D04F
:1001E00090B1C30DD40DC2F31601C0F31600E41A8A
:1001F00041F4000140F400027D34914201D3641CBB
:1002000000E04900002C02DA30BC002070474FF4B7
:1002100000000023914201D3891A034340084FEAAA
:100220004101F7D151B1914202D14FF0004105E0B7
:1002300002D24FF0010101E06FF0010103EBC45065
:10024000284430BC00F019B896230022114600F073
:100250001DB820F00040C10DC0F3160040F40000AE
:100260007F2901DA00207047962903DCC1F196014D
:10027000C84070479639884070470029A8BF70472A
:10028000401C490008BF20F00100704710B4B0FACC
:1002900080FC00FA0CF050EA010404BF10BC704767
:1002A00049B1CCF1200421FA04F411FA0CF118BF81
:1002B000012121430843A3EB0C01CB1D4FEA006150
:1002C0004FEA102042BF002010BC704700EBC35023
:1002D00010440029A4BF10BC7047401C490008BF4F
:1002E00020F0010010BC7047064C074D06E0E068A6
:1002F00040F0010394E8070098471034AC42F6D36D
:10030000FFF71AFF084900082849000870B58C1843
:1003100010F8015B15F0070301D110F8013B2A1119
:1003200006D110F8012B03E010F8016B01F8016B06
:100330005B1EF9D12B0705D40023521E0DD401F802
:10034000013BFAE710F8013BCB1A921C03E013F8CB
:10035000015B01F8015B521EF9D5A142D8D3002000
:1003600070BD00002E48007850B92E480078012852
:1003700006D12D48007840F001002B49087005E0B7
:100380002948007800F0FE002749087027480068D7
:1003900020B126480068401E24490860244800789F
:1003A00030B1012810D002281AD0032834D12DE012
:1003B0001D48007838B100201E4908701C4800789C
:1003C000401C1B49087028E001201B4908700A20C6
:1003D0001649086016480078401C154908701CE052
:1003E0001248006888B913480078032808DA1148D1
:1003F0000078401C0F49087001200D49087004E086
:100400000B480078401C0A49087006E000200649A5
:1004100008700749087000E000BF00BF7047000087
:10042000E5000020EA000020300000202C00002021
:100430003800002039000020020100200F48007819
:10044000012808D100200D4908700A200C490860D5
:1004500000200C4908700A48006820B1084800686C
:10046000401E074908600648006818B10020064988
:10047000086002E001200449086070470201002082
:1004800004010020000100209C81214200BFFEE702
:100490002DE9F05F4FF0000800260024002700251A
:1004A00032480078002806DD30480078401E2F4989
:1004B0000870BDE8F09F14202C4908702C48007883
:1004C000012848D100202A4908700024002505E0B1
:1004D000284850F825000444681CC5B2062DF7DBF7
:1004E00027460620B4FBF0F42348B0FBF7F9484652
:1004F000FFF7AAFE06463046FFF7ABFE1F4908602D
:100500001F48007830B1012807D0022808D00328FE
:100510000CD108E04FF01A080BE04FF0100808E08B
:100520004FF00C0805E04FF00A0802E04FF01A08FF
:1005300000BF00BF4046FFF787FE83463146FFF706
:1005400013FE82460F49FFF741FE8146FFF781FE09
:100550000D49086008E00D480068052804D900200E
:10056000064908600849086000BFA2E72804002087
:10057000140400204406002080C3C9017C00002030
:100580007900002000007042800000201804002044
:1005900000B589B00121052001F0ECFA0121C80263
:1005A00001F0E8FA4FF48070ADF8200048208DF893
:1005B000230008A92C4800F09BFB2C4802F002F90C
:1005C00005A802F049FB4FF6FF70ADF818008F2028
:1005D000ADF814000020ADF81A00ADF816008DF843
:1005E0001C0005A9214802F0E5FA0020ADF808003A
:1005F000ADF80A00ADF80E000120ADF80C000020A7
:10060000ADF8100002A9194802F0E4F901211748D9
:1006100002F0BCF801220321144802F031FA032150
:10062000124802F0ADF81B208DF8040000208DF870
:1006300005000B208DF8060001208DF8070001A8A9
:1006400001F0ECF919208DF8040000208DF8050068
:100650000C208DF8060001208DF8070001A801F09C
:10066000DDF909B000BD000000080140002C014088
:10067000002008E00021054A22F81010044A22F860
:100680001010411CC8B23F28F4DB70470C01002059
:100690000E020020704700E0401E0028FCD1704789
:1006A000014606E04FF47A7200E0521E002AFCDC9C
:1006B000491E0029F6DC70471A480068401C194999
:1006C000086008460068642826DD00200860164897
:1006D000006808B9012000E00020134908601348B1
:1006E000D0F8B00108B9012000E0002010490860EE
:1006F00010480078012807D10B4914310860002008
:100700000D49C1F8880107E000200749143108604D
:1007100001200949C1F88801084800880849086093
:1007200070470000340000208481214200002142F3
:10073000B0012142EA00002000802242240400404F
:10074000BC0000207047000010B5012000F022F925
:1007500098B1012000F018F90848006868B9084805
:100760000068401C0649086006480078012804D14A
:1007700005480068401C0449086010BD0001214282
:10078000DC0300200C040020F803002010B54FF417
:10079000004000F0FFF8002835D04FF4004000F092
:1007A000F3F81948006800BB18480068401C174956
:1007B000086017480068401C154908600846006832
:1007C000052820DD002008601248007801280DD19E
:1007D000002010490870104908601049086010494D
:1007E000086010490860104908600CE00A48006879
:1007F000401C09490860094800680A49086008481F
:1008000000680949086010BD20012142EC03002066
:10081000F4030020E400002010040020F80300206E
:10082000FC030020000400200404002010B5022076
:1008300000F0B0F898B1022000F0A6F8084800686F
:1008400068B908480068401C0649086006480078F6
:10085000012804D105480068401C0449086010BD07
:1008600004012142E00300200C040020FC030020CE
:1008700010B54FF4807000F08DF818B14FF480700F
:1008800000F082F810BD000010B50121084601F00B
:1008900071F90021084600F00BFA0121002000F058
:1008A00007FA0821002000F003FA0F21012000F0D0
:1008B000FFF93348006820F0010031490860081D45
:1008C000006820F00100091D0860081F006820F082
:1008D0000200091F0860081D006820F00200091DC1
:1008E0000860081F006820F48070091F0860081D58
:1008F000006820F48070091D0860081F006820F45B
:100900000040091F0860081D006820F40040091D10
:1009100008601C4800F09CF801201A49086000207B
:1009200008710C20487101208871084600F046F8D3
:10093000022014490860002008710C204871012031
:100940008871084600F03AF84FF480700D4908604D
:10095000002008710C20487101208871084600F0C1
:100960002DF84FF4004007490860002008710C2062
:10097000487101208871084600F020F810BD000081
:10098000080401400400002001490860704700008D
:1009900014040140014600200022074B1B6803EAB3
:1009A0000102054B14331B680B4013B10AB101203F
:1009B00000E00020704700000004014000212349AE
:1009C0008279002A3AD00A46126803689A430B4695
:1009D0001A600A1D126803689A430B1D1A60027997
:1009E00011440A6803681A430A60184A08321268F8
:1009F00003689A43154B08331A601A1D126803687E
:100A00009A43124B0C331A604279102A0ED11A1FE6
:100A1000126803681A430D4B08331A601A1D1268D6
:100A200003681A43094B0C331A600DE007494279F9
:100A300011440A6803681A430A6005E00279114408
:100A40000A6803689A430A60704700000004014086
:100A50000021016001710C214171002181717047F9
:100A60000348006810B9012002490870704700006F
:100A7000B0000020AC00002072B6704762B670472C
:100A80000549096821F01001034A116011460968FF
:100A90000143116070470000002002400146002021
:100AA000034A106800F038000843106070470000E7
:100AB000002002402320284908602848007820B1FF
:100AC00001280CD0022844D142E0012024490870BA
:100AD0000020244908600120204908703AE022489B
:100AE000006820490968884217D920480068401CDE
:100AF0001E49086008460068142828DD1948006867
:100B000019490968884204D216480068401C1549F2
:100B1000086000201549086019E015480068401C6D
:100B20001349086008460068142810DD0E48006864
:100B30000C490968884207D20A48006820B1094870
:100B40000068401E0749086000200949086001E06C
:100B500000E000BF00BF7047A80000201D04002077
:100B6000EA000020A4000020A000002020040020B3
:100B70002404002008B501213D2000F0FBFF0121E5
:100B8000424800F041F90420ADF8000003208DF840
:100B9000020010208DF8030069463D4800F0A8F8D7
:100BA00041F20E40ADF8000003208DF80200102045
:100BB0008DF803006946374800F09AF84EF6803009
:100BC000ADF8000003208DF8020048208DF80300E6
:100BD0006946304800F08CF840F2FB20ADF8000088
:100BE00003208DF8020010208DF8030069462A4882
:100BF00000F07EF84FF20410ADF8000003208DF8ED
:100C0000020048208DF803006946234800F070F880
:100C100049F69420ADF8000003208DF80200102062
:100C20008DF8030069461D4800F062F840F2EB5071
:100C3000ADF8000003208DF8020048208DF8030075
:100C40006946164800F054F81020ADF80000032063
:100C50008DF8020000208DF8030069460F4800F06F
:100C600047F801200E4908600E49C1F8B0010C494F
:100C700014310860091D08600B4908600B490860C1
:100C8000002009492C39086008BD0000000230002E
:100C90000014014000100140000C01400008014018
:100CA0008481214200002142B001224288812242F7
:100CB00030B500228B071C0F0F2303FA04F20B4BF5
:100CC0008C1053F824309343084C8D1044F8253091
:100CD00023468C1053F824308C07240F00FA04F4B8
:100CE0002343024C8D1044F8253030BD08000140EC
:100CF0002DE9F041024600250026002000230024B3
:100D0000002791F803C00CF00F0591F803C00CF018
:100D1000100CBCF1000F03D091F802C04CEA05059D
:100D200091F800C0BCF1000F31D0146800202BE016
:100D30004FF0010C0CFA00F3B1F800C00CEA030606
:100D40009E4220D183004FF00F0C0CFA03F7BC43F6
:100D500005FA03FC4CEA040491F803C0BCF1280F27
:100D600006D14FF0010C0CFA00FCC2F814C00AE0E6
:100D700091F803C0BCF1480F05D14FF0010C0CFAFB
:100D800000FCC2F810C0401C0828D1D31460B1F890
:100D900000C0BCF1FF0F34DD546800202EE000F1EC
:100DA000080C4FF0010808FA0CF3B1F800C00CEA87
:100DB00003069E4221D183004FF00F0C0CFA03F77B
:100DC000BC4305FA03FC4CEA040491F803C0BCF1EF
:100DD000280F05D100F1080C08FA0CF8C2F81480AD
:100DE00091F803C0BCF1480F07D100F1080C4FF097
:100DF000010808FA0CF8C2F81080401C0828CED36D
:100E00005460BDE8F0810000F0B50A4600230024DC
:100E10000021002500F00046B6F1004F02D11D4E22
:100E2000F16901E01B4E7168C0F3034583B200F421
:100E30004016B6F5401F08D121F07061154E766856
:100E400026F07066134F7E6012E000F48016B6F54F
:100E5000801F06D1032606FA05F4A14341F0706114
:100E600006E0460D360103FA06F6B14341F0706123
:100E700022B1460D360103FA06F6314300F0004672
:100E8000B6F1004F02D1034EF16101E0014E7160F5
:100E9000F0BD0000000001400246002093680B40B6
:100EA0000BB1012000E0002070470AB1016100E0B1
:100EB000416170472DE9F04300240027A046A14678
:100EC000114890F80080B8F1170F10D1062103F0F7
:100ED00027F807460C488079B84207D10A48C578F8
:100EE000067906EB05290948C0F8009000E000BF2C
:100EF00000BF002404E0002003490855601CC4B270
:100F0000142CF8DBBDE8F0835C060020A000002074
:100F100030B5002300250B4805785A2D08D14478B8
:100F2000012C03D1202002F0F5F900E000BF00BF42
:100F3000002304E000200349C854581CC3B2202BEE
:100F4000F8DB30BD0C0700202DE9F0470446012CEA
:100F500002D0032C4FD122E00020294908702949F2
:100F600008702949087000266A2001F07FFE20469B
:100F700001F07CFE304601F079FE0321234802F0A7
:100F8000CFFF814601F072FE204821490860012010
:100F9000204908700121084603F0BEF92CE000202A
:100FA0001749087017490870174908700127E2258A
:100FB000194800781949097840EA011000F0FF0843
:100FC000384601F053FE284601F050FE404601F03D
:100FD0004DFE03210D4802F0A3FF814601F046FEBD
:100FE0000A480B49086001200A4908700121084697
:100FF00003F092F900E000BF00BFBDE8F0870000F9
:10100000D4040020D5040020D60400202C070020A2
:10101000C8040020E00400203D00002078000020EB
:101020002DE9F04106460020A1490870A149087049
:10103000A1490870182E7CD2DFE806F07B0C0D0E5B
:101040000F107B7B7B7B294669897B7B7B7B7B7B52
:10105000A6CAF0EE00BF00BF00BF00BFE1253046CA
:1010600001F01EFE284601F01BFE0221934802F00B
:1010700057FF804601F014FE904891490860012016
:10108000904908700121002003F01AF90CE1E225D3
:10109000304601F005FE284601F002FE8A4800783D
:1010A00001F0FEFD0321854802F03AFF804601F081
:1010B000F7FD8248824908600120824908700121B9
:1010C000002003F0FDF8EFE0E22580480078804939
:1010D000097840EA0110C4B2304601F0E1FD28462B
:1010E00001F0DEFD204601F0DBFD0321734802F034
:1010F00017FF804601F0D4FD704871490860012057
:10110000704908700121002003F0DAF8CCE0E225F4
:1011100070480478304601F0C3FD284601F0C0FD58
:10112000204601F0BDFD0321644802F0F9FE80462F
:1011300000E0B8E001F0B4FD6048614908600120BA
:10114000604908700121002003F0BAF8ACE0E12505
:101150005524304601F0A4FD284601F0A1FD2046AB
:1011600001F09EFD0321554802F0DAFE804601F0B1
:1011700097FD5248524908600120524908700121E8
:10118000002003F09DF88FE0E22553480078012805
:1011900002D15248047800E00024304601F080FD7E
:1011A000284601F07DFD204601F07AFD03214348E9
:1011B00002F0B6FE804601F073FD404840490860E9
:1011C0000120404908700121002003F079F86BE00C
:1011D000E22541480078022802D14048047800E026
:1011E0000024304601F05CFD284601F059FD204600
:1011F00001F056FD0321314802F092FE804601F0D5
:101200004FFD2E482E49086001202E49087001210B
:10121000002003F055F847E024E0FFE7E2252E48E0
:101220000078032802D12D48047800E000243046DD
:1012300001F036FD284601F033FD204601F030FD77
:1012400003211E4802F06CFE804601F029FD1B4878
:101250001B49086001201B4908700121002003F090
:101260002FF821E0E4255524AA27304601F018FD87
:10127000284601F015FD204601F012FD384601F028
:101280000FFD04210D4802F04BFE804601F008FDE1
:101290000A480B49086001200A4908700121002012
:1012A00003F00EF800E000BF00BFBDE8F0810000D1
:1012B0004104002042040020430400207C0600205A
:1012C0004404002098040020700000206F000020DB
:1012D0006E000020AC0000206C0000206D0000209B
:1012E00000BFFEE710B5002204210248FFF7DDFD34
:1012F00010BD00000010014010B500220821024876
:10130000FFF7D3FD10BD000000100140002105E0F3
:10131000024600E0521E002AFCD1491C8142F7D34C
:101320007047000010B508210148FFF7B5FD10BD5A
:101330000010014070B5064600F062FE0024002552
:1013400020E06006040E002000F087F80220FFF77E
:10135000DDFF0220FFF7DAFF0220FFF7D7FF0120B1
:1013600000F07BF80220FFF7D1FF0220FFF7CEFF4D
:10137000FFF7D8FF10B144F0010401E004F0FE04CF
:10138000681CC5B2082DDCDB002000F066F800F018
:1013900049FE0220FFF7BAFF304600F071F8022044
:1013A000FFF7B4FF012000F058F80220FFF7AEFF6E
:1013B0000220FFF7ABFF002000F04FF8204670BD81
:1013C0002DE9F041044600F02DFE002719E0002031
:1013D00000F043F80220FFF799FFC4F3C01000F0BB
:1013E0004FF80220FFF792FF012000F036F80220AC
:1013F000FFF78CFF0220FFF789FF6006040E781CC0
:10140000C7B2082FE3DB002000F027F800F0F8FD5A
:101410000220FFF77BFF0220FFF778FF012000F09A
:101420001CF80220FFF772FF0220FFF76FFF012672
:10143000002508E0FFF776FF08B9002606E0022045
:10144000FFF764FF6D1CB5F5FA6FF3D300BF002002
:1014500000F003F83046BDE8F08110B5044614B141
:1014600000F004F801E0FFF73DFF10BD10B50122C8
:1014700004210248FFF719FD10BD000000100140D3
:1014800010B5044614B100F005F801E0FFF734FF91
:1014900010BD000010B5012208210248FFF705FD2C
:1014A00010BD00000010014010B500F0BBFD012090
:1014B000FFF7E6FF0120FFF7D0FF0220FFF726FF2E
:1014C0000020FFF7DDFF0220FFF720FF0020FFF7DD
:1014D000C4FF10BD10B500F0A5FD0020FFF7D0FF40
:1014E0000120FFF7BAFF0220FFF710FF0120FFF7EE
:1014F000C7FF0220FFF70AFF10BD70471CB5002090
:1015000001900090A0205049087000204F490870B9
:101510004F4908704D480078801DC1B2012301AACF
:101520004948007802F0C0FC48480078C01DC1B2AC
:1015300001236A464448007802F0B6FC9DF8040096
:10154000552820D19DF80000AA281CD10123414A2A
:101550003E4801783C48007802F0A6FC3B48007801
:10156000401CC1B201233C4A3748007802F09CFC81
:1015700036480078801CC1B20123384A32480078CE
:1015800002F092FC43E000203249087032490870B2
:10159000324908702F4802782C4801782A48007890
:1015A00002F0A6FC6420FFF77BF828480078401C76
:1015B000C1B2294802782448007802F099FC6420DE
:1015C000FFF76EF821480078801CC1B223480278EA
:1015D0001D48007802F08CFC6420FFF761F81B487E
:1015E0000078801DC1B255221748007802F080FCB7
:1015F0006420FFF755F815480078C01DC1B2AA2233
:101600001148007802F074FC6420FFF749F8114893
:10161000007800F003000F4908700F48007800F0D0
:1016200001000D4908700D48007800F00F000B49CB
:101630000870084800780A49488007480078888080
:1016400006480078C8801CBD340400203604002001
:10165000350400203D0000207800002079000020A3
:101660000E02002010B5FFF703F810BD15490968F8
:1016700009B9012100E0002108461349097801F069
:101680000101814210D11049097801F0F001F029DF
:1016900004D10D4909780D4A117007E00A4909780B
:1016A0001031094A117001E00749087007490978AB
:1016B000F12903D10121064A117002E00021044AF8
:1016C0001170704738812142FF000020FE00002089
:1016D000E5000020002013490968134A11601349EE
:1016E0000968134A11601349097831B1012906D0FC
:1016F000022906D0032908D105E01A2007E01020AE
:1017000005E00C2003E00A2001E01A2000BF00BF22
:10171000094909684143094A116011460968084AA4
:1017200011607047000400208C0000200404002099
:101730009000002079000020100400209400002078
:101740009800002000BFFEE710B54248007800284E
:1017500005DD40480078401E3E49087010BD142049
:101760003C4908703C480068401C3B4908603B48C5
:101770000068401C3949086039480068401C3849F5
:10178000086038480068401C3649086036480068E0
:10179000401C35490860354800883549488035483F
:1017A0000088888034480088C880344800880881D0
:1017B000334800884881334800684FF6FF7101EADA
:1017C00010402B4988822F480088C8822E48006824
:1017D0004FF6FF7101EA1040254908832A48008826
:1017E00048832A4800684FF6FF7101EA10402049FB
:1017F000888326480088C883254800684FF6FF7113
:1018000001EA10401A490884214800884884214888
:1018100040882149097888420BD11E4880881F4999
:101820000978884205D11B48C0881D49097888423B
:101830000DD0184880781849087016480079174963
:101840000870144880791649087000F09DFB00BFAD
:1018500084E70000D7030020AC030020B003002081
:10186000B4030020B8030020BC0300207C0000204B
:101870000C0100208000002084000020880000204F
:10188000A00000208C000020900000209400002088
:10189000980000200E0200203D000020780000206B
:1018A0007900002010B512480068B0F5167F03D902
:1018B0004FF416700E4908600E48007801280AD1CE
:1018C00000200D4908600D4800680D49096808446A
:1018D0000C49086005E0012007490860002009491B
:1018E00008600848008881B2074801F034F910BD4B
:1018F000A0000020EA000020B0012242A400002045
:10190000A80000209C0000200034014000B501F038
:10191000E1F90948007820B1012805D0022809D151
:1019200005E0FFF7EAFD05E0FFF7C4F802E000F08C
:10193000B7F800BF00BF00BD1C040020704708B509
:101940004FF4E06000F0A2F81C208DF800000120A8
:101950008DF8030000208DF8010004208DF80200AE
:10196000684600F05BF84FF4E06000F08FF81D204F
:101970008DF8000001208DF8030000208DF8010093
:1019800005208DF80200684600F048F84FF4E0604A
:1019900000F07CF81E208DF8000001208DF8030077
:1019A00000208DF8010006208DF80200684600F046
:1019B00035F84FF4E06000F069F806208DF800007B
:1019C00000208DF8010007208DF80200684600F025
:1019D00025F807208DF8000000208DF80100082070
:1019E0008DF80200684600F019F817208DF8000005
:1019F00000208DF8010009208DF80200684600F0F3
:101A00000DF828208DF8000000208DF801000A2034
:101A10008DF80200684600F001F808BD70B500219D
:101A200000230F22C47804B3154C246804F4E06446
:101A3000C4F5E064210AC1F10403CA40447804FA01
:101A400003F184781440214309010E4C0678A15516
:101A5000047804F01F050124AC4005786D11AD0039
:101A600005F1E025C5F8004109E0047804F01F0500
:101A70000124AC40044D0678761145F8264070BD2F
:101A80000CED00E000E400E080E100E002490143E9
:101A9000024A1160704700000000FA050CED00E0FA
:101AA00014201C4908601C48007820B1012809D086
:101AB00002282CD123E00120174908700020174983
:101AC000086025E015480068401C14490860084675
:101AD0000068142812DD1248006828B11048006818
:101AE000401E0F49086006E00E480068962802D2A2
:101AF00002200949087000200849086008E0002019
:101B000009490870044908700849087000E000BFDE
:101B100000BF7047A80000201E04002024040020FD
:101B2000A40000207C000020EA0000201C0400200B
:101B30007047000029B1064AD2690243044BDA61BA
:101B400004E0034AD2698243014BDA617047000026
:101B50000010024029B1064A12690243044B1A617F
:101B600004E0034A12698243014B1A617047000086
:101B70000010024029B1064A92690243044B9A615F
:101B800004E0034A92698243014B9A617047000066
:101B90000010024029B1064AD2680243044BDA60C1
:101BA00004E0034AD2688243014BDA6070470000C8
:101BB0000010024010B500F03BF84FF4803000F008
:101BC000F9F800F055F9194908700846007801281D
:101BD00026D1002000F0E2F8002000F01DF94FF4BB
:101BE000806000F00DF90220FEF758FF1020FEF78C
:101BF00047FF4FF4E0114FF4803000F01FF901204F
:101C000000F016F900BF392000F0A2F80028FAD041
:101C1000022000F021F900BF00F0B8F80828FBD13D
:101C200001213920FFF7A6FF10BD000001000020B0
:101C30000F48006840F001000D4908600846406800
:101C40000C4908400A494860084600680A490840AB
:101C5000074908600846006820F4802008600846AC
:101C6000406820F4FE0048604FF41F008860704711
:101C7000001002400000FFF8FFFFF6FE30B5002123
:101C80000022002400232D4D6D6805F00C0121B1C8
:101C9000042905D0082923D105E0294D056022E05B
:101CA000274D05601FE0254D6D6805F47012234D2A
:101CB0006D6805F48034022505EB92421CB9214D74
:101CC000554305600BE01D4D6D6805F400351DB1F1
:101CD0001C4D5543056002E0194D5543056002E077
:101CE000174D056000BF00BF144D6D6805F0F00191
:101CF0000909154D6B5C0568DD4045600F4D6D6849
:101D000005F4E061090A104D6B5C4568DD408560B3
:101D10000A4D6D6805F46051C90A0B4D6B5C45684E
:101D2000DD40C560054D6D6805F44041890B074DE8
:101D30006B5CC568B5FBF3F5056130BD0010024072
:101D400000127A0000093D0016050020260500203B
:101D500010B501460022002300204A11012A02D1B9
:101D6000094C236806E0022A02D1074C236A01E0ED
:101D7000054C636A01F01F02012494401C400CB121
:101D8000012000E0002010BD001002400248406821
:101D900000F00C00704700000010024001460020D7
:101DA000034A506820F0F00008435060704700007C
:101DB000001002401149096821F480310F4A116076
:101DC0001146096821F480211160B0F5803F03D0ED
:101DD000B0F5802F0ED106E00849096841F4803142
:101DE000064A116007E00549096841F4A021034A49
:101DF000116000E000BF00BF70470000001002400B
:101E000001460020034A506820F4E0600843506017
:101E1000704700000010024001460020034A50684D
:101E200020F4605040EAC10050607047001002404A
:101E30000149086670470000000042420246002047
:101E4000044B586820F47C1042EA01031843014B0C
:101E5000586070470010024001460020034A506855
:101E600020F003000843506070470000001002405B
:101E700038B5002000900024002500BF3120FFF776
:101E800067FF05460098401C00904FF6FF710098D0
:101E9000884201D0002DF1D03120FFF759FF08B161
:101EA000012400E00024204638BD000000B5204891
:101EB0000078204908700846007818B30846007872
:101EC0001D49097888421DD11C480078A8B91C48D2
:101ED0000078052805DA1A480078401C184908706F
:101EE0000BE000F025F9144800781649087000202E
:101EF000134908700120114908700E4800780E49F6
:101F0000087013E00B4800780B49087000200B495B
:101F100008700B4908700748007838B909480078FC
:101F200020B100F033F900200649087000BD000020
:101F3000D1000020EC000020ED000020EF00002088
:101F4000EE000020F200002008B50820ADF80000E7
:101F500003208DF8020014208DF80300694608481C
:101F6000FEF7C6FE0420ADF8000003208DF8020045
:101F700010208DF8030069460148FEF7B9FE08BD40
:101F8000001001407047000010B5A02016490870ED
:101F90000020164908701649087016480278134840
:101FA00001781148007801F0A3FF6420FEF778FB68
:101FB0000E480078401CC1B20F4802780A480078E9
:101FC00001F096FF6420FEF76BFB08480078801C48
:101FD000C1B20A4802780448007801F089FF642001
:101FE000FEF75EFB10BD0000340400203604002024
:101FF000350400203D0000207800002079000020FA
:1020000008B50820ADF8000003208DF80200482034
:102010008DF8030069460248FEF76AFE08BD00001D
:102020000010014008B50820ADF8000003208DF82D
:10203000020010208DF8030069460248FEF758FEA2
:1020400008BD00000010014010B500F001F810BDFF
:102050000CB50020019000903348006840F48030B7
:102060003149086000BF3048006800F4003000903B
:102070000198401C0190009820B94FF6FF7101981B
:102080008842F0D12848006800F4003010B10120E7
:10209000009001E0002000900098012843D12348DF
:1020A000006840F01000214908600846006820F0F0
:1020B000030008600846006840F0020008601A4803
:1020C00040681949486008464068486008464068CA
:1020D00040F4806048600846406820F47C10486006
:1020E0000846406840F4E81048600846006840F040
:1020F0008070086000BF0C48006800F00070002885
:10210000F9D00948406820F00300074948600846B4
:10211000406840F00200486000BF0348406800F09B
:102120000C000828F9D10CBD00100240002002402C
:1021300000B5154800780A2822D2DFE800F005062D
:10214000090C0F1215181B1E1BE001F0FDFE18E014
:1021500001F012FF15E001F01BFF12E001F01EFF7D
:102160000FE001F021FF0CE001F024FF09E001F095
:1021700027FF06E001F02AFF03E001F02DFF00E059
:1021800000BF00BF00BD0000ED0000200548007842
:1021900010B1012802D100E001E000E000BF00BF63
:1021A00070470000F20000207047000010B513488F
:1021B000006840F001001149086008464068104975
:1021C00008400E494860084600680E4908400B491F
:1021D00008600846006820F48020086008464068CF
:1021E00020F4FE0048604FF41F008860FFF72CFFCA
:1021F0004FF000600449086010BD0000001002406C
:102200000000FFF8FFFFF6FE08ED00E0F0B50C4619
:10221000154600220021068C4FF6FE773E400684CC
:10222000028B018C4FF60C7632407E1C06EA0316B8
:102230002E433243104EB0420ED0104EB0420BD05F
:10224000B0F1804F08D00E4EB04205D00D4EB042D6
:1022500002D00D4EB04206D14FF6FD76314044F02B
:102260000106314305E04FF6F576314044F00106B2
:10227000314302830184F0BD002C01400034014051
:102280000004004000080040000C0040F0B50C467F
:102290001546002200210026078C4FF6EF7C07EA46
:1022A0000C070784028B018C4FF6FF7707EA0416B0
:1022B00040F6FF473A404FF6FF7707EA03373A43C5
:1022C0004FF6FF7707EA05273A43114FB8420ED081
:1022D000104FB8420BD0B0F1804F08D00E4FB8422B
:1022E00005D00E4FB84202D00D4FB84206D14FF67E
:1022F000DF77394046F01007394305E04FF65F7746
:10230000394044F01007394302830184F0BD0000D6
:10231000002C01400034014000040040000800404F
:10232000000C0040F0B50C461546002200210026A6
:10233000078C4FF6FF6C07EA0C070784828B018C31
:102340004FF6FF7707EA04264FF60C773A404FF630
:10235000FF7707EA03172F433A43114FB8420ED0D5
:10236000104FB8420BD0B0F1804F08D00E4FB8429A
:1023700005D00E4FB84202D00D4FB84206D14FF6ED
:10238000FF57394046F48077394305E04FF2FF5755
:10239000394044F48077394382830184F0BD0000E2
:1023A000002C0140003401400004004000080040BF
:1023B000000C0040F0B50C46154600220021002616
:1023C000078C4EF6FF7C07EA0C070784828B018C92
:1023D0004FF6FF7707EA043640F6FF473A404FF6DC
:1023E000FF7707EA05273A434FF6FF7707EA0337F7
:1023F0003A43114FB8420ED0104FB8420BD0B0F153
:10240000804F08D00E4FB84205D00E4FB84202D0D0
:102410000D4FB84206D14DF6FF77394046F480574C
:10242000394305E047F6FF57394044F480573943B4
:1024300082830184F0BD0000002C01400034014083
:102440000004004000080040000C004010B50221CC
:10245000454800F0AEFA00286FD00221424800F053
:1024600092F9414800F0A2FA404908600846006825
:102470003F49096888420FD93E48006838B93B484F
:1024800000683B490968401A3B49086017E04FF66D
:10249000FF703949086012E03648006802280AD205
:1024A000334800684FF6FF71081A3049096808443C
:1024B0003149086003E04FF6FF702F4908602E484D
:1024C00000682E4908602C4801682D480278007881
:1024D000401C2B4B18702B4840F8221018460078EF
:1024E000052838DD0020194608702648006826496E
:1024F0000860244840684860224880688860214815
:10250000C068C8601F48006908611E48406948618A
:1025100001201E4908701E48007801280ED10020B5
:102520001B4908701B4908601B4908601B4908606B
:102530001B4908601B4908600DE013E0154800685E
:10254000401C144908601448006815490860134885
:1025500000681449086000200649086003480068C4
:102560000349086010BD0000002C01400C00002051
:10257000100000201804002014000020780400201F
:10258000150400202C06002044060020140400201E
:10259000E400002010040020F8030020FC030020C9
:1025A000000400200404002010B50121084800F0B8
:1025B00000FA60B10121064800F0E5F8054800681E
:1025C0000A2804D203480068401C0249086010BD74
:1025D000002C01401804002010B50121880700F0EC
:1025E000E8F918B10121880700F0CDF80020114961
:1025F000087011480068401C0F49086008460068D0
:10260000B0F57A7F14DB002008600C4800680C49A4
:1026100008600C4800680C4908600C4800680C49C8
:1026200008600020054908600649086007490860FD
:1026300010BD0000B400002020000020DC030020BA
:1026400084000020E003002088000020EC0300202C
:10265000F003002010B50121044800F0AAF918B1D8
:102660000121024800F08FF810BD00000004004076
:1026700010B50121084800F09CF918B10121064865
:1026800000F081F8C821044800F063FAC82102482C
:1026900000F061FA10BD00000008004030B589B0BC
:1026A00005460C4601211020FFF764FA012148037A
:1026B000FFF760FA01210846FFF75CFA4020ADF809
:1026C000200018208DF8230003208DF8220008A98F
:1026D0002348FEF70DFB234800F074F801A800F032
:1026E0002EFA05A800F0B8FAA8B2ADF81800A0B20A
:1026F000ADF814000020ADF81A00ADF816008DF802
:102700001C0005A9174800F055FA6020ADF8040038
:102710000120ADF806000020ADF808000A20ADF851
:102720000A000020ADF80C00ADF80E00ADF8100066
:10273000ADF8120001A90B4800F0ACF908210948D6
:1027400000F0F4F90121074800F00EF801210548D6
:1027500000F01CF80121034800F024F809B030BD56
:10276000001001400034014021B1028842F0800293
:10277000028004E002884FF67F731A40028070479F
:10278000CA4302827047CA430282704721B102885D
:1027900042F00102028004E002884FF6FE731A4004
:1027A0000280704731B1B0F8442042F40042A0F8F2
:1027B000442005E0B0F84420C2F30E02A0F8442003
:1027C0007047000010B504466848844208D10121D2
:1027D000C014FFF7DFF90021E014FFF7DBF9C4E0D4
:1027E000B4F1804F08D101210846FFF7B3F9002169
:1027F0000120FFF7AFF9B8E05D48844208D101211C
:102800000220FFF7A7F900210220FFF7A3F9ACE0AF
:102810005848844208D101210420FFF79BF9002188
:102820000420FFF797F9A0E05348844208D1012122
:102830000820FFF78FF900210820FFF78BF994E0BB
:102840004E48844208D101211020FFF783F900216E
:102850001020FFF77FF988E04948844208D1012120
:102860002020FFF777F900212020FFF773F97CE0A3
:102870004448844208D101214014FFF78BF900211C
:102880006014FFF787F970E03F48844209D10121C5
:10289000C804FFF77FF900214FF40020FFF77AF911
:1028A00063E03A48844209D101210805FFF772F933
:1028B00000214FF48010FFF76DF956E03448844250
:1028C00009D101214805FFF765F900214FF40010F7
:1028D000FFF760F949E02F48844208D101214020E8
:1028E000FFF738F900214020FFF734F93DE02A488E
:1028F000844208D101218020FFF72CF9002180209B
:10290000FFF728F931E02548844208D101218015DC
:10291000FFF720F90021A015FFF71CF925E020485A
:10292000844209D101210804FFF734F900214FF452
:102930008030FFF72FF918E01A48844209D10121AD
:102940004804FFF727F900214FF40030FFF722F980
:102950000BE01548844208D101218804FFF71AF9D9
:1029600000214FF48020FFF715F910BD002C014025
:102970000004004000080040000C0040001000402F
:102980000014004000340140004C01400050014060
:102990000054014000180040001C0040002000408E
:1029A0000040014000440140004801400146888E3B
:1029B000704730B50246002000230024158A05EA3E
:1029C0000103958905EA010413B10CB1012000E06F
:1029D000002030BD70B505460C46244885420ED017
:1029E000234885420BD0B5F1804F08D0214885425D
:1029F00005D02148854202D02048854200D100E020
:102A000000BF208850B92389A28861882846FFF733
:102A1000FDFBE188284600F0A0F825E02088042886
:102A20000AD12389A28861882846FFF72FFCE18814
:102A3000284600F09BF817E0208808280AD123894F
:102A4000A28861882846FFF76DFCE188284600F0DF
:102A50009AF809E02389A28861882846FFF7AAFC32
:102A6000E188284600F098F870BD0000002C014075
:102A7000003401400004004000080040000C004009
:102A80001AB183890B43838102E083898B4383815D
:102A90007047000070B5002400220023058C4FF61B
:102AA000FE7635400584028C8388048B4FF68F7543
:102AB0002C40B51E2C400D882C43751E2A400D89D4
:102AC0002A434D882A43144DA8420BD0134DA842E7
:102AD00008D0134DA84205D0124DA84202D0124D85
:102AE000A84213D14FF6F7752A404D892A434FF675
:102AF000FB752A408D882A434FF6FF652B404FF621
:102B0000FF552B408D892B43CD892B438380048334
:102B1000CD888586028470BD002C014000340140C0
:102B20000040014000440140004801400A460021A5
:102B3000018B4FF6F7731940114301837047002151
:102B4000018041808180C180018141818181C18179
:102B500070478185704781867047028B4FF6F3730B
:102B60001A400283028B0A4302837047028B4FF2A2
:102B7000FF331A400283028B4FF6FF7303EA0123EF
:102B80001A4302837047828B4FF6F3731A40828395
:102B9000828B0A4382837047828B4FF2FF331A4045
:102BA0008283828B4FF6FF7303EA01231A438283E9
:102BB00070470000002202881D4B98420ED01D4B2A
:102BC00098420BD0B0F1804F08D01B4B984205D0F3
:102BD0001A4B984202D01A4B984204D14FF68F7389
:102BE0001A404B881A43174B984207D0164B98420D
:102BF00004D04FF6FF431A40CB881A4302808B88DB
:102C000083850B8803850A4B98420BD0094B984269
:102C100008D00E4B984205D00D4B984202D00D4B78
:102C2000984201D10B7A038601238382704700000A
:102C3000002C014000340140000400400008004026
:102C4000000C004000100040001400400040014013
:102C500000440140004801404FF6FF71818000218F
:102C60000180C180418001727047000009490A4A11
:102C70001278885408490978491C074A117011468E
:102C8000097801F01F01117004490978491C034AB1
:102C9000117070472C070020D5040020D6040020B6
:102CA00009490A4A1278885408490978491C074A90
:102CB00011701146097801F00F011170044909786B
:102CC000491C034A117070477C0600204204002012
:102CD000430400201248007820B101280FD00228B8
:102CE0001BD119E00F480078012807D100200D49B9
:102CF00008700D4908700120094908700DE0094865
:102D00000078022807D1002006490870074908709A
:102D100002200349087000E000BF00BF70470000B8
:102D20001C040020EB0000201D0400201E040020D5
:102D30000348006810B90A20014908607047000084
:102D4000C000002020480078002804DD1E480078DC
:102D5000401E1D4908701D480078002804DD1B48EE
:102D60000078401E1949087019480078002804DDD1
:102D700017480078401E164908701648006820B1B0
:102D800014480068401E1349086013480068401C3E
:102D90001149086008460068B0F57A7F12D3002018
:102DA00008600E480078002804DD0C480078401EBA
:102DB0000A4908700A48006820B109480068401EA6
:102DC000074908607047000097040020B6040020FF
:102DD0000A050020B0000020C4000020B60000203A
:102DE000C000002010B540F227711A4800F00EF91B
:102DF00010B101F04DFC19E040F22551154800F0EA
:102E000005F998B1002014490860124800F0BAF999
:102E1000C4B212480078202808DA11480F4909780E
:102E200044540E480078401C0C4908700821094899
:102E300000F0DFF8012806D1064800F0A3F90821C8
:102E4000044800F0C1F840F22551024800F0BCF8F7
:102E500010BD0000004C0040FC040020F9040020DC
:102E60006C07002010B540F227711A4800F0CEF828
:102E700010B101F095FB19E040F22551154800F022
:102E8000C5F898B1002014490860124800F07AF99A
:102E9000C4B212480078202808DA11480F4909788E
:102EA00044540E480078401C0C4908700821094819
:102EB00000F09FF8012806D1064800F063F90821C8
:102EC000044800F081F840F22551024800F07CF8F7
:102ED00010BD0000003801403C0400203A040020EE
:102EE0005C06002010B540F22771154800F08EF8FE
:102EF00010B101F01FFB0FE040F22551104800F027
:102F000085F848B100200F4908600D4800F03AF9F3
:102F1000C4B2204601F0B0FA0821094800F069F86F
:102F2000012806D1064800F02DF90821044800F0D8
:102F30004BF840F22551024800F046F810BD000061
:102F400000440040A804002010B540F227711A4840
:102F500000F05CF810B101F05FFB19E040F2255180
:102F6000154800F053F898B1002014490860124841
:102F700000F008F9C4B212480078202808DA114895
:102F80000F49097844540E480078401C0C490870D9
:102F90000821094800F02DF8012806D1064800F064
:102FA000F1F80821044800F00FF840F225510248DA
:102FB00000F00AF810BD000000480040D0040020D6
:102FC000CC0400200C07002001F40072B2F5007F51
:102FD00000D100BFCA430280704721B1828942F408
:102FE0000052828104E082894DF6FF731A4082818B
:102FF000704702460020B1F5007F00D100BF138862
:103000000B400BB1012000E00020704770B5024674
:10301000002400230025002040F66A16B14200D1AA
:1030200000BFC1F3421501F01F03012606FA03F3A6
:10303000012D02D19689334006E0022D02D1168A75
:10304000334001E0968A33400C12012606FA04F45C
:103050001688344013B10CB1012000E0002070BD8F
:10306000F0B50346002400260025002040F66A172C
:10307000B94200D100BF1846C1F3421401F01F0647
:10308000012707FA06F5012C01D10C3004E0022CCF
:1030900001D1103000E014301AB107682F430760E7
:1030A00002E00768AF430760F0BD00002DE9F0477C
:1030B00086B005460E460024A24600BFA146002762
:1030C000B08900B100BF2F462C8A4CF6FF70044037
:1030D000F08804432C82AC894EF6F3100440B0888B
:1030E00031890843718908430443AC81AC8A4FF6A7
:1030F000FF400440B0890443AC8201A8FEF7BEFD46
:103100001F48874202D1DDF810A001E0DDF80CA0D5
:10311000A88900F4004040B10AEBCA0000EB0A1095
:1031200031684900B0FBF1F807E00AEBCA0000EB98
:103130000A1031688900B0FBF1F86420B8FBF0F0A8
:1031400004012009642101FB1089A88900F40040D2
:1031500040B1322000EBC900B0FBF1F000F00700F5
:10316000044308E0322000EB09106421B0FBF1F0C9
:1031700000F00F0004432C8106B0BDE8F08700008A
:103180000038014001468888C0F308007047C1F349
:1031900008028280704710B500F01EF800F03CF87D
:1031A00000F002F810BD000010B509480078401C7E
:1031B0000749087008460078642808DD0020087078
:1031C00017200449087008460078FDF729FF10BD54
:1031D0009A0400209404002000B50D4800680528DA
:1031E00004D20B480068401C094908600848006880
:1031F00005280BD107480078002807DD0020044986
:103200000860FDF757FE00200249087000BD00006D
:103210003C0400203A04002006480078012807D129
:103220000548007820B90020024908700349086069
:10323000704700009604002097040020AC01214252
:1032400010B500F045F800F001F810BD194800680D
:1032500020B118480068401E1649086015480068EB
:1032600038BB64201349086013480078401C124999
:1032700008700846007800F0030008700F480068E6
:10328000401C0E4908600E4800780E4909788842B3
:103290000FD00B4801780078401C094A10700A488A
:1032A000405C0A4908701046007800F01F00114683
:1032B00008707047BC040020C0040020780400207F
:1032C000AF040020B0040020EC060020B104002070
:1032D00010B50D480078012814D10C4800680A2860
:1032E00004D20A480068401C084908600748006882
:1032F0000A2807D100200549086001F0FBF80020EA
:103300000349087010BD00001E030020A80400201F
:10331000A40400200749084A12788854064909780D
:10332000491C054A11701146097801F01F011170FE
:10333000704700004C070020D804002010B500F0B2
:103340005FF800F03DF800F001F810BD10B5174827
:103350000068002804DD15480068401E1349086015
:103360001248006830B94FF4FA7010490860032021
:10337000FFF7D0FF0E4800780E490978884213D035
:103380000B4801780078401C094A10700A48405CDC
:103390000A4908701046007800F01F0011460870B6
:1033A00006480078FDF7D0FD10BD0000E4040020C1
:1033B000D7040020D80400204C070020D9040020A6
:1033C00000B50D4800680A2804D20B480068401C6C
:1033D00009490860084800680A280BD107480078A6
:1033E000002807DD002004490860FDF791FD00205A
:1033F0000249087000BD0000D0040020CC04002069
:1034000006480078012807D10548007820B9002037
:10341000024908700349086070470000DD0400207D
:10342000DE0400209C01214200BFFEE710B586B0FB
:103430000446012144F21400FEF79CFB4FF4007097
:10344000ADF8140003208DF8160018208DF8170031
:1034500005A91E48FDF74CFC4FF48060ADF8140040
:1034600048208DF8170005A91848FDF741FC4FF4D6
:10347000E060FEF70BFB25208DF8000000208DF8A2
:1034800001008DF8020001208DF803006846FEF768
:10349000C5FA01940020ADF80800ADF80A00ADF8B7
:1034A0000C00ADF810000C20ADF80E0001A9084882
:1034B000FFF7FCFD012240F225510548FFF7D0FD42
:1034C00001210348FFF789FD06B010BD0008014047
:1034D0000038014010B586B0044601210420FEF7F3
:1034E00049FB01214804FEF725FB0420ADF8140038
:1034F00003208DF8160018208DF8170005A9224822
:10350000FDF7F6FB0820ADF8140004208DF8170035
:1035100005A91D48FDF7ECFB01214804FEF71AFB45
:1035200000214FF40030FEF715FB4FF4E060FEF78A
:10353000ADFA26208DF8000000208DF80100012052
:103540008DF802008DF803006846FEF767FA0194D3
:103550000020ADF80800ADF80A00ADF80C00ADF899
:1035600010000C20ADF80E0001A90848FFF79EFDE1
:10357000012240F225510548FFF772FD0121034861
:10358000FFF72BFD06B010BD0008014000440040CD
:1035900010B586B0044601210820FEF7EBFA0121A0
:1035A0008804FEF7C7FA4FF48060ADF814000320DA
:1035B0008DF8160018208DF8170005A92348FDF78F
:1035C00097FB4FF40060ADF8140004208DF817004D
:1035D00005A91E48FDF78CFB01218804FEF7BAFA05
:1035E00000214FF48020FEF7B5FA4FF4A060FEF7FB
:1035F0004DFA27208DF8000000208DF801000220F0
:103600008DF8020001208DF803006846FEF706FAE7
:1036100001940020ADF80800ADF80A00ADF80C00E8
:10362000ADF810000C20ADF80E0001A90848FFF716
:103630003DFD012240F225510548FFF711FD012112
:103640000348FFF7CAFC06B010BD0000000C0140A3
:103650000048004002E008C8121F08C1002AFAD141
:1036600070477047002001E001C1121F002AFBD102
:1036700070472DE9F04F06460D464FF0000B2888A5
:10368000052848D170784FEA0029B07840EA090946
:1036900009F101001FFA80F9F0780402307904433F
:1036A000012C35DBB4F5FA6F32DA3746002028807A
:1036B000012007F8010B2888401C288004F007002F
:1036C00040B12046E11704EB5171C910491C01F0CB
:1036D000FF0805E02046E11704EB5171C1F3C7086C
:1036E00007F8018B2888401C288000232246494681
:1036F000384600F06FFB8246BAF1000F04D0504606
:1037000000F06AFD834608E028884044288004E0F1
:103710004FF0030B01E04FF0030B5846BDE8F08F6C
:103720002DE9F04F06460D464FF0000B288805287E
:1037300047D170784FEA0029B07840EA090909F1C9
:1037400001001FFA80F9F078040230790443012C5B
:1037500034DBB4F5FA6F31DA3746002028800220D6
:1037600007F8010B2888401C288004F0070040B1AE
:103770002046E11704EB5171C910491C01F0FF0804
:1037800005E02046E11704EB5171C1F3C70807F8C3
:10379000018B2888401C288022464946384600F084
:1037A0001DFB8246BAF1000F04D0504600F014FD14
:1037B000834608E028884044288004E04FF0030B4B
:1037C00001E04FF0030B5846BDE8F08F2DE9F047BC
:1037D00005460C464FF0000A2088052837D1687846
:1037E0004FEA0028A87840EA080808F101001FFA0B
:1037F00080F8E87806022E79012E25DB7D2E23DC69
:103800002F4600202080032007F8010B2088401C51
:1038100020807006000E07F8010B2088401C2080D5
:10382000002332464146384600F0DCFA8146B9F1C1
:10383000000F04D0484600F0CFFC824609E0208803
:1038400000EB4600208004E04FF0030A01E04FF057
:10385000030A5046BDE8F0872DE9F04705460C46BF
:103860004FF0000A2088052837D168784FEA0028F1
:10387000A87840EA080808F101001FFA80F8E87803
:10388000060228790643012E24DB7D2E22DA2F46FC
:1038900000202080042007F8010B2088401C208095
:1038A0007006000E07F8010B2088401C208032466D
:1038B0004146384600F0D4FA8146B9F1000F04D0F1
:1038C000484600F089FC824609E0208800EB46006B
:1038D000208004E04FF0030A01E04FF0030A504655
:1038E000BDE8F0872DE9FC4F04460D46002000900E
:1038F00028880A285DDB60784FEA002AA07840EA31
:103900000A0A0AF101001FFA80FAE078060220791B
:10391000064360794FEA002BA07940EA0B0B0BF1CC
:1039200001001FFA80FBE0790702207A0743607AE2
:103930000190012E3BDB7D2E39DC012F37DB792F07
:1039400035DC79000198814231D101233A4659464C
:1039500004F10A0000F046FA8146B9F1000F1ED1C9
:10396000A04600202880172008F8010B2888401C5A
:1039700028807006000E08F8010B2888401C28805B
:10398000002332465146404600F02CFA8146B9F1F8
:10399000000F04D12888022101FB06002880B9F11C
:1039A000000F06D0484600F017FC009001E003200D
:1039B00000900098BDE8FC8F024670472DE9F84161
:1039C00004460F464FF000083888052829D1607852
:1039D0000502A0780543681C85B22079F0B9E0782B
:1039E000FF2801D0E078C8B900208DF80100E07808
:1039F000FF2803D101208DF8000002E000208DF89F
:103A0000000001231A462946684600F0E3F90646FD
:103A10004EB1304600F0E0FB804604E04FF0030872
:103A200001E04FF003084046BDE8F8812DE9F04180
:103A300004460F464FF000083888052812D16078F8
:103A40000502A0780543681C85B201231A46294661
:103A5000E01C00F0C7F9064636B1304600F0BCFB6A
:103A6000804601E04FF003084046BDE8F0812DE9B3
:103A7000F04F05460E464FF0000B3088052839DD23
:103A800068780702A8780743781C87B2E8780402B0
:103A90002879044395F805A004F0070040B12046BA
:103AA000E11704EB5171C910491C01F0FF0805E052
:103AB0002046E11704EB5171C1F3C708012C16DB56
:103AC000B4F5F66F13DCD04511D1012322463946F7
:103AD000A81D00F07FF98146B9F1000F04D04846D7
:103AE00000F07AFB834607E00520308004E04FF0C9
:103AF000030B01E04FF0030B5846BDE8F08F2DE9B2
:103B0000F04704460E464FF0000A3088062828DBAE
:103B100060780702A0780743781C87B2E078050236
:103B20002079054394F80590012D17DB782D15DCDD
:103B30006806000E484511D101232A463946A01DCA
:103B400000F050F98046B8F1000F04D0404600F074
:103B500043FB824607E00520308004E04FF0030A73
:103B600001E04FF0030A5046BDE8F087F0B5044687
:103B7000059D0020044E3170044E34700026044F21
:103B80003E70044F3E70F0BD0E0300200F03002076
:103B9000080100201E03002038B5002500203F4901
:103BA00008700846007808B1062038BD684600F065
:103BB0001DFC01286FD19DF8000030B1012805D00F
:103BC000022817D0032865D163E063E0344A354901
:103BD000354800F073F805465DB93348007833493D
:103BE0000978884202D03048007810B9022000F0ED
:103BF0000FFC4FE02B48006800782D490870012029
:103C00002C490870002417E02B4810F8340000B944
:103C100014E0294810F834002549097888420AD16F
:103C2000254800EBC4001E4942681E4800689047C2
:103C30002049087002E0641C102CE5DB00BF1A4824
:103C4000007828B31B480078C8B1002014490880C8
:103C50001748007840F08001114802880088401C15
:103C60000F4B18800F48006881541248027818469C
:103C700001880088401C18800A480068425408489F
:103C80000288084801680948007800F049F80546AC
:103C900000E000BF00BF00BF87E700000801002070
:103CA000CA030020C4030020C80300200E03002024
:103CB000C9030020CC0300202C0300202DE9F04292
:103CC00004460D4616464FF000090027FCF7D4FEC7
:103CD00011480088FF2802DD4046BDE8F0820E480A
:103CE0000088042812DB0C4801880C4800F0A6FA72
:103CF00060B90A480078207007480088C01E3080EC
:103D00000648401C28604FF0010900E00527FCF739
:103D1000B5FE3846E1E700001A0300202C0500201C
:103D20002DE9F04105460E4617464FF00008FCF716
:103D3000A3FE1A480078012829D1701E184908608E
:103D40000120184908801648006805700846008858
:103D500038440880084601881148006800F06EFA6F
:103D6000044610490888411C0E4B19800E490C541A
:103D7000221219460888411C19800B490A54012057
:103D80000A4908700121002000F074FA01E04FF0A8
:103D90000508FCF773FE4046BDE8F08111030020E2
:103DA00014030020180300202C050020100300201D
:103DB00010B5FCF761FE00200549087000210120C4
:103DC00000F058FA00F006FBFCF758FE10BD0000AA
:103DD0001103002010B50446012010BD0346012048
:103DE00070470000F0B504460D460020002D31DB81
:103DF000AE18802E2EDC184E3688A91B13B1012B6D
:103E000027D111E00DE0154E36F81160361204F896
:103E1000016B124E16F8116004F8016B491C561E16
:103E2000B2B2002AEFDC14E010E014F8017B3E028D
:103E30000A4F27F8116014F8016B37F811703E43F0
:103E4000064F27F81160491C561EB2B2002AECDC5E
:103E500000BF00E00120F0BD0C0200200E02002097
:103E600030B503460020002917DB8D18802D14DCA7
:103E70000B4D2D884C1B0DE00A4D35F814502D12BA
:103E800003F8015B074D15F8145003F8015B641C3F
:103E9000551EAAB2002AEFDC00E0012030BD000070
:103EA0000A0100200C0100202DE9F04104460D46D6
:103EB00016469846FDF7F8FA2046FDF781FA0746C0
:103EC0002846FDF77DFA07464FF47A70FCF7E8FBC9
:103ED000FDF7EAFA44F00100FDF772FA0746012007
:103EE000FDF728FA3070FDF7F5FA3846BDE8F081A5
:103EF0002DE9F04106460C461546FDF7D5FA304649
:103F0000FDF75EFA07462046FDF75AFA07462846AF
:103F1000FDF756FA0746FDF7DDFA3846BDE8F081B1
:103F200010B502461378521C002004E01478234494
:103F3000521C441CE0B24C1E8442F7DC03EB1324F9
:103F4000E443E0B210BD000007480078012804D126
:103F5000064908700649087005E00648007840F0F8
:103F60000200044908707047E5000020EB000020C3
:103F700000010020300000200220034908700120C9
:103F80000249087070470000EB000020000100208B
:103F90000120014908707047E40000200120014918
:103FA0000870704700010020012001490870704727
:103FB0000001002001200149087070470001002025
:103FC00001200149087070470001002001200149CB
:103FD00008707047000100200120014908707047F7
:103FE0000001002000201349096809B140F00100D8
:103FF0001049091F096809B940F002000D49083944
:10400000096809B140F00400012803D101210A4ADE
:1040100011700EE0022803D10221074A117008E056
:10402000042803D10321044A117002E00021024A4E
:104030001170704724012242D100002008B5FDF71D
:10404000B9FDFCF797FDFDF77FFFFDF723FAFDF7BC
:104050000DFA4FF49640FFF7E9F94FF41650FFF7C9
:1040600039FA4FF49640FFF793FA47214FF47A70EC
:1040700000F0C3F847214FF47A70FEF70FFB4FF4BE
:104080007A714C48FEF765FD64214A48FEF763FDEE
:10409000FCF77EFAFCF7F8FBFDF751FC4648FCF70D
:1040A000FAFA6FF07F40FCF7F6FAFDF7DBFA002032
:1040B00042490860FDF722FA00204149C1F8AC01ED
:1040C000404908603F492031086001203E490860AE
:1040D0003D49083108603D49087002204FF41653ED
:1040E0000246012100900020FFF740FDFFF760FE2F
:1040F0005FE03748007800285BD136480078401CE4
:104100003449087008460078092801DD002008704D
:10411000FEF718FE2F480078012801D1FCF7CCFAF1
:104120002C480078022801D1FCF70CFB29480078C4
:10413000032801D1FDF79AFA26480078042803D114
:10414000FFF750FFFDF7B2FE22480078052803D1A3
:10415000FCF79EF9FDF7BEFA1E480078052803D14A
:10416000FDF7A0FBFDF7D2FB1A480078062801D125
:10417000FCF776FC17480078072801D1FCF7F2F825
:1041800014480078072801D1FCF758F91148007845
:10419000082803D1FEF7CCFDFDF7D6FAFFF7FCFCAB
:1041A000FEF7F9FFFFF74CF8FFF7C8F801200849C0
:1041B00008709EE700340140FFFF0F008401224297
:1041C000000021429C0121429C8121420C040020DC
:1041D000B4000020B5000020014621B1012904D01F
:1041E000072906D103E0002005E0022003E00620B5
:1041F00001E0042000BF00BF70473EB505460C46F5
:1042000001210846FDF796FC0020ADF80600ADF848
:104210000200A8B2ADF80400A0B2ADF800006946F3
:104220004FF08040FEF7C6FC012211469007FEF7D2
:1042300027FC01218807FEF7A9FA3EBD70B50246AA
:104240000C46FF25FF2309E012F8010B80EA030169
:104250000648405C80EA05030548455C201EA4F141
:104260000106B4B2F0D143EA052070BD084700084A
:104270000848000870B505460C46FCF7FDFB35B153
:10428000012240F225510D48FEF7EAFE05E000222A
:1042900040F225510948FEF7E3FE34B1012240F215
:1042A00027710648FEF7DCFE05E0002240F2277188
:1042B0000248FEF7D5FEFCF7E1FB70BD004400406C
:1042C00070B505460C46FCF7D7FB35B1012240F22C
:1042D00025510F48FEF7C4FE05E0002240F22551AB
:1042E0000B48FEF7BDFE4CB1012240F22771084891
:1042F000FEF7B6FE01200749086005E0002240F203
:1043000027710348FEF7ACFEFCF7B8FB70BD000058
:1043100000380140AC01214270B505460C46FCF75F
:10432000ABFB35B1012240F225510F48FEF798FE54
:1043300005E0002240F225510B48FEF791FE4CB1FA
:10434000012240F227710848FEF78AFE0120074942
:10435000086005E0002240F227710348FEF780FE66
:10436000FCF78CFB70BD0000004800409C0121421E
:1043700070B505460C46FCF77FFB35B1012240F2D3
:1043800025510F48FEF76CFE05E0002240F2255152
:104390000B48FEF765FE4CB1012240F22771084838
:1043A000FEF75EFE01200749086005E0002240F2AA
:1043B00027710348FEF754FEFCF760FB70BD000058
:1043C000004C0040BC0121420020014908707047A8
:1043D0001E030020012003490870002002490860E4
:1043E000704700001E030020A804002001460020A2
:1043F000054A127832B1054A12780A700022024B3F
:104400001A700120704700001D0300201C030020CB
:1044100001460120024A10700248017001207047D5
:104420001D0300201C03002010B50446214602484D
:10443000FEF7ADFE012010BD0044004010B504465B
:1044400021460248FEF7A3FE012010BD00380140BE
:1044500010B5044621460248FEF799FE012010BD22
:104460000048004010B5044621460248FEF78FFE82
:10447000012010BD004C004030B502460024134618
:104480001948007830B101280AD0022817D0032833
:1044900027D102E0FFF79EFF23E0FFF79BFF20E01C
:1044A0000020124908800888411C104D29801049BD
:1044B0000B5402200C490870FFF78CFF11E00B48E9
:1044C0000088FF2807DC09490888411C074D29801E
:1044D00007490B5402E0032003490870FFF77AFFF5
:1044E00000BF00BF204630BD110300201A0300208A
:1044F0002C05002000B500230D48007820B10228CB
:1045000007D003280BD109E00020FFF781FF034605
:1045100005E00120FFF77CFF034600E000BF00BF7D
:10452000FFF752FF012002490870184600BD000045
:104530001103002010B500241648007810B101289E
:1045400024D104E000210120FFF794FE1EE0124870
:10455000008878B1114909680878FFF765FF0F48AE
:104560000068401C0D4908600B480088401E0A493D
:1045700008800AE00320FFF74BFF044600210120DA
:10458000FFF778FE00200349087000BF00BF2046F7
:1045900010BD0000100300201803002014030020A9
:1045A00010B500241748007810B1012826D104E086
:1045B00000210120FFF784FE20E01348007878B145
:1045C000124909680878FFF739FF10480068401C55
:1045D0000E4908600C480078401E0B4908700CE03A
:1045E00000210120FFF76CFE01200949087002201C
:1045F0000849087000200349087000BF00BF20462A
:1046000010BD000098040020430400204404002052
:10461000960400209704002010B500241748007865
:1046200010B1012826D104E000210120FFF774FE1B
:1046300020E01348007878B1124909680878FFF73C
:1046400007FF10480068401C0E4908600C480078BD
:10465000401E0B4908700CE000210120FFF75CFEB2
:104660000120094908700220084908700020034908
:10467000087000BF00BF204610BD0000E00400200D
:10468000D6040020C8040020DD040020DE04002041
:1046900010B500241748007810B1012826D104E095
:1046A00000210120FFF764FE20E01348007878B174
:1046B000124909680878FFF7D5FE10480068401CC9
:1046C0000E4908600C480078401E0B4908700CE049
:1046D00000210120FFF74CFE01200949087002204B
:1046E0000849087000200349087000BF00BF204639
:1046F00010BD00000C05002002050020EC04002085
:10470000090500200A05002000C1814001C0804148
:1047100001C0804100C1814001C0804100C1814091
:1047200000C1814001C0804101C0804100C1814081
:1047300000C1814001C0804100C1814001C0804171
:1047400001C0804100C1814001C0804100C1814061
:1047500000C1814001C0804100C1814001C0804151
:1047600001C0804100C1814000C1814001C0804141
:1047700001C0804100C1814001C0804100C1814031
:1047800000C1814001C0804101C0804100C1814021
:1047900000C1814001C0804100C1814001C0804111
:1047A00001C0804100C1814000C1814001C0804101
:1047B00001C0804100C1814001C0804100C18140F1
:1047C00000C1814001C0804100C1814001C08041E1
:1047D00001C0804100C1814001C0804100C18140D1
:1047E00000C1814001C0804101C0804100C18140C1
:1047F00000C1814001C0804100C1814001C08041B1
:1048000001C0804100C1814000C0C101C30302C298
:10481000C60607C705C5C404CC0C0DCD0FCFCE0E00
:104820000ACACB0BC90908C8D81819D91BDBDA1A70
:104830001EDEDF1FDD1D1CDC14D4D515D71716D6E0
:10484000D21213D311D1D010F03031F133F3F23250
:1048500036F6F737F53534F43CFCFD3DFF3F3EFEC0
:10486000FA3A3BFB39F9F83828E8E929EB2B2AEA30
:10487000EE2E2FEF2DEDEC2CE42425E527E7E626A0
:1048800022E2E323E12120E0A06061A163A3A26210
:1048900066A6A767A56564A46CACAD6DAF6F6EAE80
:1048A000AA6A6BAB69A9A86878B8B979BB7B7ABAF0
:1048B000BE7E7FBF7DBDBC7CB47475B577B7B67660
:1048C00072B2B373B17170B05090915193535292D0
:1048D00096565797559594549C5C5D9D5F9F9E5E40
:1048E0005A9A9B5B99595898884849894B8B8A4AB0
:1048F0004E8E8F4F8D4D4C8C448485458747468620
:104900008242438341818040284900080000002002
:104910002C0500000C030008504A00082C0500205C
:10492000A406000064360008026B021A010241036B
:104930004020030A100A0A4A015C01383A02A01218
:10494000021203120412051206120712081A095E57
:10495000120B120C120D120E120F12101211121253
:104960001213121412151216121712181219121A03
:10497000121B121C121D121E121F122012211222B3
:104980001223122412251226122702B32812011212
:10499000021203120412051206120712081209125B
:1049A0000A120B120C120D120E120F12101211120B
:1049B0001212131214121512161217121802E119FC
:1049C000B201321113B939330804135938330803CB
:1049D00013CD3733081013FF3A3308061A2D083267
:1049E000171AE520293C1373363308051ABD3832EF
:1049F0000F1A6F2032021A2138013414809698144D
:104A0000400D0314E093042B801A72E14AC8B602E9
:104A10005064321429B881290C094665DA55044BD3
:104A200001016BA970C96CA91A091A2852038BF4E9
:104A30000124436AFF3A9C0609165452C82D01020C
:104A40000304042009060708090204060800000000
:0400000508000131BD
:00000001FF
